:020000040800F2
:10000000F04E0024AD0200082B140108B10B0108CA
:10001000291401087DC40008E9210108000000003E
:10002000000000000000000000000000BF02000807
:1000300089C80008000000002D140108D915010826
:10004000C7020008C7020008C7020008C70200086C
:10005000C7020008C7020008C7020008C70200085C
:10006000C7020008C7020008C7020008C70200084C
:10007000C7020008C7020008C7020008C70200083C
:10008000C7020008C7020008C7020008C70200082C
:10009000C7020008C7020008C7020008C70200081C
:1000A000C7020008C7020008C7020008C70200080C
:1000B000C70200082D170108C7020008C702000880
:1000C000C7020008C7020008C7020008C7020008EC
:1000D000C702000831210108812101088D21010892
:1000E000C7020008C702000800000000C70200089D
:1000F000C7020008C7020008C7020008C7020008BC
:10010000C7020008C702000865170108C7020008F7
:1001100061180108B1180108C7020008C7020008E9
:10012000EDC60008C7020008C7020008C7020008A1
:10013000C7020008C7020008C7020008C70200087B
:1001400000000000000000000000000000000000AF
:10015000C7020008C7020008C7020008DD21010825
:10016000C7020008C7020008C7020008C70200084B
:10017000C7020008C7020008C7020008000000000C
:10018000C7020008C7020008011901085119010837
:10019000C7020008C7020008C7020008C70200081B
:1001A000C50E0108C7020008C7020008C702000800
:1001B000C7020008C7020008C7020008C7020008FB
:1001C000C7020008C7020008C7020008C7020008EB
:1001D000C7020008C7020008C7020008C7020008DB
:1001E000C7020008C7020008C7020008C7020008CB
:1001F000C7020008C7020008C7020008C7020008BB
:10020000C7020008C7020008C7020008C7020008AA
:10021000C7020008C7020008C7020008C70200089A
:10022000C7020008C7020008C7020008000000005B
:10023000C7020008C702000800000000C70200084B
:10024000C7020008C7020008C7020008C70200086A
:10025000C7020008C7020008C7020008C70200085A
:10026000C7020008C7020008C7020008C70200084A
:10027000C7020008C7020008C7020008000000000B
:10028000C702000800000000C702000800000000CC
:1002900000000000C7020008DFF80CD00BF0D6FB0E
:1002A00000480047212F0108F04E002406488047EF
:1002B00006480047FEE7FEE7FEE7FEE7FEE7FEE74B
:1002C000FEE7FEE7FEE7FEE7A51601089902000833
:1002D0000F21DFF8F82602EBC1031B6C984201D214
:1002E000491EF8D50846704701604260836000618E
:1002F000101840F8042D704710B504466068FFF7E9
:10030000E7FF102810D2DFF8C41663680A6801EB13
:10031000C000D21A0A60A1684430E26801B14A60A4
:100320000AB1116010BD016010BDF8B5DFF89C4640
:100330000546A06B0E46E168AF190818401EB8428A
:1003400004D3386810B9786800F035F8A06BB04273
:1003500008D2301F0068371A386818B978683E46E6
:1003600000F029F82846FFF7B3FF102821D204EB4C
:10037000C0072A46002130467B6CFFF7B5FF07F126
:100380004400016811B106F108024A60B160002121
:10039000F16006F108010160206894F8291028181E
:1003A000206031B9E168081AA168814238BF01466E
:1003B000A1602846F2BD451938469DE72DE9F14375
:1003C000DFF8084682B0A56BE0684019401E019036
:1003D00028460168476899BB019A791991422FD242
:1003E00000918946D9F80010D9F8048041B3626BB6
:1003F00012F83120012A23D1E26A91420CBF012672
:100400000026FFF779FF606BD9F80010424600EB39
:10041000C1004946456028460BF057FA26B1606B8B
:100420000099401A2818606308EB05013846FFF769
:100430007CFF029919B1884201D3002005E04746AC
:1004400001987D198542C3D30120BDE8FE832DE9C3
:10045000F041DFF87845E06A40B9DFF8740541689B
:1004600080680830B1FBF0F0851C03E0206900EBE8
:10047000D000051DE80000F07CF8060029D0616B73
:10048000DFF850351B68E76A01EBC600406800F1F1
:1004900008082069C20040469847C4F834802069A3
:1004A000E6626A1E01E0401C4860904208EBC00111
:1004B000F9D3002048602069606260682169256185
:1004C0002818401A606017B1384600F0EFF9002094
:1004D00000E00120BDE8F08170B5DFF8F01401F113
:1004E00028042078A0BB0120DFF8E4242070906865
:1004F00010B9506880089060081D5A23C36100231A
:1005000001EBC30610259D405B1C102B3564F7D30F
:100510000221C16051681268816022618B18143B0E
:10052000E360002105E0E3684A1C03EBC1014A6077
:100530001146C268521E9142F5D301210260016248
:1005400021698068FFF7F1FEFFF781FF0120A060BD
:1005500070BD10B5DFF874144A684B6A521C4A60CB
:100560004A6B02EBC0046360002302F8303048623B
:1005700010BD2DE9F0410546DFF85044FFF7ACFF10
:10058000206C854202D3E81C8008800000F10C0535
:100590002068A8421BD3206B6168884207D3401EA5
:1005A0002063FFF754FF216B491C216378B9606811
:1005B000D4F82480401E6060606B00EBC80149687D
:1005C00061620121B8F1000F00F8381001D100205C
:1005D00037E028460026FFF77BFE01E00026401C9E
:1005E000102830D204EBC001496C0029F6D08E6887
:1005F000002EF4D07168A94208D2B1680029EDD06C
:100600008E68002EEBD07168A942F6D37768216C12
:10061000781B0C318842304638BF3D46FFF76CFEF0
:10062000606B00232A46414600EBC8004660304616
:10063000FFF75AFEBD4203DAA919781BFFF775FED2
:100640004046BDE8F081002EE0D12846FFF7B6FE17
:100650000028BED04046FFF77CFFB8E738B5DFF88A
:100660007843DFF8685323688022002105F14000B9
:1006700098472368C022002128469847236801B084
:100680000C220021DFF84803BDE83040184750F83D
:10069000080C704728B1CD49CA6B026002B15060A6
:1006A000C86370472DE9F8430446FFF715FFE01CC7
:1006B00080088000051DC54C206CE66B854238BF64
:1006C000054600E006468EB156F8041C3068A94283
:1006D000F8D108B171684160706808B13168016093
:1006E000E06BB0422ED13068E0632BE0A06BE16894
:1006F00001EB0008A8F10409D9F80000A8EB0007F5
:10070000386830B10020FFF759FED9F80000A8EB97
:1007100000073868B0B97868A84213DB3818694216
:100720000844061DFFF748FEE068401BE060606972
:10073000281860617868401B1CBF3946FFF7F5FD3B
:1007400046F8045C3046BDE8F283002818BFFFF786
:1007500010BF70479D49496B01EBC00040680830ED
:1007600070479A49CA69521CCA61496B01EBC001C2
:100770000A78521C0A70EDE7036894494A6B53F8F3
:10078000083C02EBC3021378022B03DBCB690BB1ED
:100790005B1ECB611178491E1170002101600020A1
:1007A00070478A4800680C380128B8BF002070479D
:1007B0008648406870478548C1680068081A7047D5
:1007C00082488068704738B5040010D07F4DE868D3
:1007D000696908182060FFF7EEFFA060FFF7E1FFEE
:1007E0006060E868E06068692061A868606131BDA8
:1007F00000B10120754981F82900704773480169EB
:100800004068081A704710B5FFF766FE00240F21F4
:100810006E4800EBC100406C10B9491EF8D508E0E5
:10082000806830B1416880688C4238BF0C4600282F
:10083000F6D1A4F10C0010BD80B5FFF7E4FFB0F5D0
:10084000800F6249096A04D9642290FBF2F04843A0
:1008500002BD48436421B0FBF1F002BD5B488169F1
:10086000491C8161704759488169491E81617047FF
:10087000574A10608808800050607047112854491A
:1008800005D34A68B0EB520F02D3500800E01020A5
:1008900088607047002138B14C49496B01EBC000BA
:1008A00040684068A0F10C010846704710B504008C
:1008B0000BD04648406B00EBC40041684868FFF726
:1008C00034FD2046BDE8104043E610BD10B5044697
:1008D0002068FFF7EBFF0020206010BD70B50446D4
:1008E0000D46002607E054F82600FFF7DFFF002042
:1008F00044F82600761CAE42F5DB70BDA0F10A017B
:100900005B293DBF3149086200200120704770B566
:100910000D0082B0044601D1002076BD2846FFF7C5
:1009200014FF060011D0FFF71CFF002C00902A4690
:1009300004D0284B21461B68984703E0264B002132
:100940001B6898476846FFF717FF304676BD38B5F5
:100950000446FFF7FAFE05000AD0FFF702FF1E4B20
:1009600000901B682246002198476846FFF704FF65
:10097000284632BDF0B504460D4683B02846FFF741
:10098000E4FE060018BF002C1DD02046FFF782FFB2
:100990000746AF423046C8BF2F46FFF7E2FE019040
:1009A0002046FFF7DEFE009001460A4B01981B68C7
:1009B0003A46984701A8FFF7DFFE6846FFF7DCFEDE
:1009C0002046FFF773FF3046FEBD0000000C0024F8
:1009D000C00C0024400100243C01002470B50446F2
:1009E000DFF8706830680D46817CC9070DD5C16994
:1009F000B0F924002A4691F82030097E8B42A8BF26
:100A00004B1E1918204602F023FA3068817C8907B2
:100A10000FD5C169B0F9240020318A780978081807
:100A2000531C2A4603EBD371A0EB6101204602F070
:100A30000FFA3068817C490710D5C169B0F92400EC
:100A400011F8202F8978511A4B1E2A4648BF0023DF
:100A500019182046BDE8704002F0FAB970BD10B513
:100A6000DFF8F0170A68B2F92210D26952684C1EFA
:100A7000002190472146201A401CBDE81040ADE7F8
:100A8000DFF8D0170968B1F92210491EA6E7DFF890
:100A9000C4070068C069D7E12DE9F041DFF8B44729
:100AA0002568EE6C3418286DB6184518C71815E07F
:100AB0002946404604F044FC02F01AFC80F0FF1086
:100AC00080F47F4002F00BFC02462946404608F1C4
:100AD000010802F030FC4645EADA6D1CAF42A8BFBF
:100AE000A046F8DABDE8F08110B513685C18146010
:100AF0000022227005E000F001023032C9B2400845
:100B00005A540A46511E002AF5D110BD0021020098
:100B100048BF5242491C0A2905DA0FF2A87353F85C
:100B200021309A42F6D2002848BF491C0846704737
:100B3000012807DB0A68531C0B602B23137009681C
:100B400000220A707047F0B54D1EB0F1004F04D17D
:100B5000196801246FF0004004E00024002806D545
:100B6000196840424E1C1E602D260E702946150045
:100B700011D0491E0FE006FB15000E0002D10CB18A
:100B80006D1CEDB20A2D1E6804BF0125491C3035CD
:100B9000771C1F603570CDB2ADB10D46691EEDB248
:100BA000954206D11D686E1C1E60DFF8AC66367873
:100BB0002E700FF21075C9B255F8216090FBF6F552
:100BC000EDB20B2DD7DB196800200870F0BD10B511
:100BD000136809291C4610DA0B44136000221A70AE
:100BE0000FF2D06205E000F00F03C9B2D35C000938
:100BF00063540B46591E002BF5D110BD00F0FF02C7
:100C000001F0FF03D21AC0F3072310B5C1F3072484
:100C100048BF524292B252431B1B48BF5B42000C7A
:100C20009BB2A0EB114003FB032200B2010048BFBE
:100C3000404280B200FB002010BD02F050BB80B5E6
:100C400002F04DFB68E010B50446FFF7F8FFA04244
:100C50000CBF0120002010BD10B50446FFF7EFFFC8
:100C600001462046BDE81040C8E700B58BB001AA98
:100C700000926A46FFF738FF01A800F077FD0BB03D
:100C800000BD30B58BB000F031F8FFF72DFF00F05C
:100C900034F80BB030BD10B503F071FADFF8B415BD
:100CA0004FF47A620C68B4F92410091AE069407EA6
:100CB0000818431EB4F92200BDE8104000F041BB03
:100CC00000B585B001AA00926A46FFF780FF01A82F
:100CD00000F04CFD05B000BD30B585B000F006F861
:100CE000FFF775FF00F009F805B030BD154601AA01
:100CF0000C46009219466A4670472A46214601A8CA
:100D000000F0AFBD002818BF05F065BD704704F0C6
:100D10000BBB80B504F008FBBDE8024002F0E8BA66
:100D200004F007BB80B504F004FBF5E7DFF8240509
:100D30000068B0F922007047DFF818050068B0F9C4
:100D400024007047DFF80C050068007C7047DFF86E
:100D500004050068C069704718B9DFF8F804006836
:100D6000C06900F10802137E8B70937E0B71537E75
:100D7000CB70126810478AE6DFF8D8040068807EDE
:100D80007047DFF8D824B2F900200260DFF8D00401
:100D9000B0F9000008607047F3E7DFF8B8040068B6
:100DA000B0F92C0070472DE9F243044600270026D5
:100DB00000250800904623D0FFF769FE07460098FB
:100DC0000078E8B1B8F1000F1AD06D1C00984146C8
:100DD00003F040FA814600984946A8EB090803F061
:100DE00062FA86424946B8BF0646009803F04FFCB7
:100DF000009908440090684602F0A4FD0028E1D064
:100E0000DFF850040068B0F922102180808C6080E7
:100E10007018401EA080608817FB0500401EE0800F
:100E2000BDE8F183DFF82C040068B0F92A007047B0
:100E3000DFF8300435210170342181703021C17018
:100E400062210171704700BF017EC07E10FB01F07E
:100E50007047407E704702F04BBA00B9704710B53A
:100E600009B30AB3B2F90030B1F900409C42B8BFEF
:100E700023460380B1F90230B2F90240A342C8BF51
:100E800023464380B2F90430B1F90440A342B8BF0D
:100E900023468380B2F90630B1F90640A342B8BFB9
:100EA0002346C38010BD11460822BDE810400AF059
:100EB0000CBD58B10388CB1803808388C918818082
:100EC000418851184180C1885118C1807047DFF8AE
:100ED000980310B500680024010002D0804700B1DB
:100EE000012405F03BFA00B10124DFF8800300681B
:100EF000010002D0804700B10124DFF874030068CC
:100F0000010018BF8047204610BD10B5002400E046
:100F10000124FFF7DCFF0028FAD1204610BD30B5D0
:100F2000039C012801FB04F50AD0022813D00428F1
:100F30001DD0082824D0102825D0202829D02EE024
:100F400005EBD30003F00701C1F10701105CC840B5
:100F500000F0010030BD05EB9300590001F00601DF
:100F6000C1F10601105CC84000F0030030BD05EB84
:100F70005300D907105C4CBF00F00F00000930BDD2
:100F8000E818105C30BD481000FB043032F8100047
:100F900030BD881000FB043052F8200030BD002026
:100FA00030BD00B9704780B500920B4682688188D9
:100FB000C088FFF7B4FF02BD10B50446FFF7F1FF8C
:100FC000E1680A791AB110B96FF0704010BD8968F4
:100FD00051F8200010BD9F490968488400207047DF
:100FE0009C4909688884002070479A4A1268508496
:100FF00000209184704710B996480068C069C268A3
:10100000104794480068007E704792480068407E10
:10101000704790490A68117E1076084670478D49DE
:101020000A68517E50760846704770B500240EE07D
:1010300031F8245000EB840615FB03F520F824500A
:1010400001EB8405641C6D8815FB03F575809442E3
:10105000EEDB70BDDFED7D0AF8B520EE200A044618
:10106000DFED7B0A0D462DED028B80EE200ABDEEF2
:10107000C08A164618EE100A02F0C9FE074618EE9E
:10108000100A02F08FFE002115E005EB810335F90F
:101090002120B3F9023000FB03FC7B4307FB02CCA9
:1010A00000FB123204EB81034FEA2C4C24F821C0E0
:1010B000491C12145A80B142E7DBBDEC028BF1BD32
:1010C000B1F90620B0F902309A42A2BFB0F9062069
:1010D000B1F902309A420DDBB1F90420B0F90030C9
:1010E0009A42A2BFB0F90400B1F90010884201DBB6
:1010F00001207047002070475649702209680AF0A5
:10110000E4BB01465348006870220AF0DEBB59492F
:101110000860704758490860704710B5554C206802
:1011200010B902F061F92060206810BD10B5524C72
:10113000206810B902F05CF92060206810BD80B50D
:1011400004F02EF904F04EF9BDE8014005F063B952
:1011500005F022BF02F0E7B802F0E9B83D4A6FF0AF
:1011600070411268516302F0D5B83A4A6FF070418D
:101170001268116302F0C5B8374A1178107008463A
:10118000704735480078704780B53C48006802F0E9
:10119000CAF83B48006802F0CAF80120FFF739FF9F
:1011A000002000F035F8002000F039F8002000F0B1
:1011B00009F83448006800F007F80020BDE8024054
:1011C00010E0E1E701F012BE22490A68D16900B1DE
:1011D000D061084670471F490A68B2F92010108490
:1011E000084670471B490A68917E9076084670470A
:1011F000184B1A4A10801A4A11801B68224A5B7CDD
:1012000052F823300A4601461846DB681B6A184725
:1012100010490A68B2F92C109085084670470D49AC
:101220000A68B2F92A1050850846704710B5094976
:10123000164B0A68164C917C23600300154C0CBFBA
:101240000023154B23609074084610BD00C82F483A
:10125000DA0F49400C01002418010024140D002469
:10126000160D00249000002420010024D80C002436
:10127000D40C0024CC0C0024D00C00242C0100241D
:101280002801002424010024100100245F0A000822
:10129000E00C0024E40C0024810A000880B504E07E
:1012A000FFF733FE08B903F0C0FA03F073F9002822
:1012B000F6D002BD30313233343536373839414219
:1012C00043444546010000000A000000640000009D
:1012D000E803000010270000A086010040420F0034
:1012E0008096980000E1F50500CA9A3B70B5AB4DB9
:1012F000AB4C0020AB4EA0602B6870220021304622
:1013000098472B680822002106F1780098477667F5
:1013100000202070606070BDA34908607047A34939
:1013200048617047A14908617047A049C86070478B
:101330009E48406970479D48006970479B48C06857
:1013400070472DE9FC4105460E4617469846042095
:1013500001F04CFD04469348406FC16C006D4D197F
:101360008619ADF80050CF198044ADF80470684676
:10137000ADF80260ADF8068004F075FD48B1434653
:101380003A463146284601F0A4FD04F051FD0028FC
:10139000F5D1204601F02AFDBDE8F381B0F9063011
:1013A000B0F90420B0F90210B0F90000C9E780B527
:1013B00000210020FFF719FE7D4943F6FF72134616
:1013C0000846BDE80050BCE710B5754CA06860B990
:1013D0000120A0600BF0F6FA0FF080FC7548E06089
:1013E00004F10C00BDE8104097E010BDF8B572485C
:1013F00040F24942016840F2514349084900016006
:101400006E480168C1F30A019142016800680CBF8F
:1014100001220022C1F30A019942C0F30A0040F2FE
:1014200052410CBF012300238842654865490CBF27
:10143000012400241A43224304D0634A00F064F8D4
:101440000CD0FEE7614A1268C2F30A02B2F58A6F55
:1014500004D15F4A00F058F800D0FEE7FFF7B4FF70
:10146000524C2E2020700BF0C7FA4E4901F168054E
:1014700001F11406E868021DC26300F108028063EE
:1014800000643260407C01EB80000831806FC268EC
:10149000126B90470FF248103065E068B060E86862
:1014A000083030600120307105F0AAF97063032024
:1014B00028706FF07040F0613062606901F033FFB6
:1014C000206901F034FF4348606001F0BCFE06462D
:1014D00001F0FDFF10B101F0FDFF38B901F0EBFFA5
:1014E000074601F0E6FF394601F0EDFF002100203C
:1014F000FFF77EFE04F0E8FFA868010018BF8047F0
:10150000012060703046F2BD012393609368002B88
:10151000FCD1116011688142704724498A69426098
:101520008861704721484078704710B51F4CA0690A
:1015300068B1A0690068010003D08047A16900205C
:101540000860A0694068A0610028F2D160700020A6
:10155000A060BDE81040FFF781B8124908677047E6
:101560000F49486070470E4949680A0018BF08478C
:101570007047020003D00A0018BF002202D10020E9
:1015800000210122144B186010465960704703492E
:101590000860704711490860704700003C01002452
:1015A000F40C0024980000243401002418010024C5
:1015B00001C0FFFFED120008002000E0002004E061
:1015C000CDB5E8B5C2A507F4003002400010005CBC
:1015D000004C025818470008180D00244001002450
:1015E000512E0008F72D000802280ADA564A52F850
:1015F000200000E0006820B1C26812688A42F9D178
:10160000704700207047022801DB002070474E49D8
:1016100051F8200000E0006800281EBFC16809687A
:101620000029F8D17047FFF735B8F8B51F46022FEB
:1016300004460D46164603DA1C20FFF733F808B9B6
:101640000020F2BD0DB105610AE03F4951F82710B5
:1016500031B100E011460A68002AFBD10969016135
:10166000876100218682C460016041608160F2BDB3
:101670008169354A52F82130834206D1036842F825
:101680002130016809B100224A60416809B102684D
:101690000A60016809B142684A6000210160416046
:1016A000704770B5A0B381690C46022C30DA274A26
:1016B000651C1378AB42BCBF631C13708461224A63
:1016C00052F824301BB942F8240028E023465C6815
:1016D000002CFBD1E3B1DC68C56824682E68A64203
:1016E000B8BF1B68F6DBB44204BF848A012C06D164
:1016F0001C6824B12346DC682468B442F8DA5C68CC
:10170000002C1DBF20605968416042F8210001E0B3
:10171000012070BD9842586008BF0023036000207C
:1017200070BD38B51C46FFF780FF050009D0FFF7F4
:10173000B8FFE868006820B90548006800EB84003D
:101740008565284632BD000010010024080D0024E4
:101750000C0100240020704710B5002803E0046845
:10176000FFF79FFF2000FAD110BD00002DE9FC47D4
:1017700004006ED002F019FD0546A64E3068B0F99F
:10178000228002F0FCFC07463068818CC91B8184F2
:101790002078002855D047F6FF71204602F05AFD08
:1017A00081464946204602F07EFD824600F053F80D
:1017B000012906D0022906BF0AEBDA71491000217F
:1017C00000E05146428C511A6A464184ADF800103F
:1017D000BDF800105144491EADF80410B0F92400C2
:1017E0004946ADF802004019401EADF806002046FB
:1017F00002F080FD3168BDF8020088844946204629
:1018000002F045FF044420780A2818BF0D280FD1A4
:1018100000F021F8491E012994BF4146B0F920107B
:10182000418421780A2908D1818C6918818404E0D7
:10183000BDF8000031685044488414F8010B0028BA
:10184000A6D13068818C79188184818D21F00301C3
:101850008185BDE8F387306890F82C1001F0030112
:1018600070476C4B1B6859849A847FE780B5FFF7FB
:10187000F8FFBDE80140FFF70EBAF8B50446654829
:1018800000680D461646B0F92C0040F00200FFF744
:10189000BFFC0746324629462046FFF7E2FF38469E
:1018A000BDE8F240FFF7B4BC11B581B00C4602E0D0
:1018B00002F04FFE641E24B101A802F0D7FE010021
:1018C000F6D12046441E18B1202002F042FEF8E76F
:1018D00013BD2DE9F94786B00D469046994600277D
:1018E000002402F062FC002D0490069E684604D09D
:1018F0002946082209F0E9FF01E0FFF703FA18F092
:101900000C0F08BFBDF9024032D0CA460025BAF11B
:10191000000F12D0069851466D1C02F09BFCAAEBFA
:10192000000A0146069802F0B2FE069908440690A5
:1019300006A802F007F80028E9D0049808F00C0186
:101940006843042918BF082902D00C2905D00FE0EC
:10195000BDF90610081A441C0AE0BDF90210BDF9D1
:101960000620521A521C101A00EBD07001EB6004D2
:101970000696B9F1000F49D00698494602F06AFC74
:10198000054606982946A9EB050902F08CFC18F0DB
:10199000030112D0022905D03EBFBDF90410091A77
:1019A0004F1C0CE0BDF90010BDF90420521A121AA8
:1019B00002EBD27201EB620701E0BDF9007015493C
:1019C00002AA09684F848C84ADF80870BDF808102D
:1019D000ADF80A404018401EADF80C0004982946A6
:1019E0002018401EADF80E00069802F083FC069801
:1019F000294602F04CFE06990844069002F0D5FBF9
:101A0000041906A801F09EFF0028B2D008B0BDE876
:101A1000F08700000C0100242DE9FC4104460D462E
:101A2000164698460027B4B165B1284605F0B4FAC9
:101A3000070007D03A462946684601F0B5FF6846D8
:101A400005F0AAFA4346324629462046FFF741FFF1
:101A5000384605F0A1FABDE8F38147F6FF73DBE7EE
:101A6000F8B504460D461646002700E07F1C3246B6
:101A70002946204602F032FB00280444F6D13846BD
:101A8000F2BD2DE9F44F040086B00D469B4600F0F0
:101A90008A80B5F90400B5F90070B5F90260ADF8B7
:101AA0000C00B5F906A0C01B401C029002F07DFBA3
:101AB0008046069810F00C0F1BD002995A4620461B
:101AC000FFF7CEFF069901F00C01042918BF082981
:101AD00002D00C2904D00CE008FB10A0461C08E042
:101AE000AAEB0601491C08FB101000EBD07006EBB6
:101AF0006006284605F050FA5FEA000911D0BDF8EB
:101B00000C00ADF81070ADF812604A46ADF8140044
:101B10002946ADF816A004A801F046FF04A805F078
:101B20003BFA02995A46204602F0A9FA8246BDF8CD
:101B30000C00ADF802604644ADF80400701EADF82C
:101B400006005146ADF80070204602F0ACFB069945
:101B500011F003010FD0022901D00ED312E0B5F924
:101B60000010B5F90420521A101A401C00EBD07076
:101B700001EB600004E0288802E0A988081A401CF4
:101B8000ADF800006A465146204602F0B3FB0299C8
:101B90005A46204602F0A2FA044420780028C0D118
:101BA000484605F0F9F907B0BDE8F08F10B50446D6
:101BB00002F094FD01462046BDE8104002F073BBE0
:101BC0007249096801B10020704738B5704C714DF9
:101BD00000F015F82846984700F011F805F10800C4
:101BE000984700F00CF805F11000984700F007F84E
:101BF00005F11800984700206749086031BD236847
:101C000008220021704738B50024634D2868E04061
:101C1000C00744BF204600F012F8641C202CF5DBFE
:101C200031BD38B500245C4D2868E040C00744BF92
:101C3000204600F03BF8641C202CF5DB31BDF8B5E4
:101C40000446FFF7BDFF5549095602292DDB514ACD
:101C500002EB80031D696E1C1E6135BB9D6802F19D
:101C6000080602F1080756F82060761C8E4247F8F5
:101C7000206004BF002647F8206002F108061F68B4
:101C800056F82060BE42EAD02046FFF7BCFC009028
:101C900058B1009A21216846D268526A90470300E1
:101CA00003D00098324629469847F1BD70B582B0FE
:101CB0000446FFF785FF3949095602291CDB3549DF
:101CC00001EB80063069401E306115D10120A04033
:101CD000FFF749FCB5682046B561FFF794FC00901A
:101CE00050B1009A22216846D268526A9047020099
:101CF00002D000982946904773BD10B50C46FFF7F7
:101D00005FFF244901EB80029369002B04D441F862
:101D100020404FF0FF30906110BD38B504460D46AD
:101D20001F48016819B91F490160FFF7F6FB2046FB
:101D3000FFF746FF012D1949B8BF01250D5431BDEC
:101D400080B5FFF73DFF15490856010008BF012087
:101D500002BD15480068407C71E713480068407C6C
:101D6000A4E7014610480068407CC6E701460E48DB
:101D70000068407CD1E70C480068407CE0E7012027
:101D8000024908607047044908607047400D00240C
:101D90003C010024200D00240C0D0024F00C002434
:101DA000440D0024CB1B00080C01002438B5044668
:101DB0000D46FFF728FC009048B1009A03216846C1
:101DC000D268526A904710B1164840F8245031BD8D
:101DD000002102283CBF134951F8201008467047E3
:101DE00038B50C46154601F08CFC10B1002121607D
:101DF000296032BD0C480068407C704770B50446CD
:101E0000094D2868022C467C09D22046FFF7FBFBCF
:101E100028B128684474FFF792F9044804603046FA
:101E200070BD00004C0D00240C0100240C0E002499
:101E300001F0ACBB01F004BC01F0D9BB01F0E8BB80
:101E4000B5EE400AF1EE10FA80B508D5FEEE000AB4
:101E500000F014F841EC100B10F080FC07E0F6EEF7
:101E6000000A00F00BF841EC100B11F051F851ECA6
:101E7000100B09F079FD00EE100A01BD30EE200ACA
:101E800010EE100A09F05DBD70B504460D467948A4
:101E9000164600EB8500D0ED000AF8EE600A20EE51
:101EA000800AFFF7CDFFBDEEC00A002E2A46E1B240
:101EB00010EE100A1CBFBDE8704002F04BBCBDE83C
:101EC000704002F03FBC00000020B5EE400AF1EE89
:101ED00010FADFED640A48BFB1EE400A30EE200A86
:101EE000B5EE400AF1EE10FA0AD0F2EE040A401CF8
:101EF00020EE200AFCEEC00A10EE901A0029F4D061
:101F0000C0B2704738B50C46C5B22DED048BB0EEAB
:101F1000408A00F099F8F0EE488AB7EE009A3DD07A
:101F200000F092F81EDBB7EE000A00F095F83CD501
:101F3000B0EE480AFFF7C8FF8542A8BFB7EE000A17
:101F40001BDAB6EE000A00F087F806DB280025D180
:101F5000DFED458AB0EE498A27E0280021D0F0EE77
:101F6000498A20E000F076F81FDBB0EE480AFFF760
:101F7000ABFF854204DBBFEE000A78EE808A14E0F6
:101F80009FED3A0A00F068F806D5280006D1BFEEAA
:101F9000008AF0EE488A08E0280002D0F0EE498A74
:101FA00003E0DFED318A9FED308A324800EB850097
:101FB00090ED000AB8EE400A20EE280AFFF740FF35
:101FC000BDEEC00A10EE100AFEF7A0FD401B48BF90
:101FD0000020012C03D100F037F8C8BF401C29466F
:101FE0000B00B0EE480A2246BDEC048B18BF01235B
:101FF00028181818C0B2BDE8384045E700223CE078
:1020000000213DE010B5C4B22DED028BB0EE408A48
:10201000BDEEC80A10EE100AFEF778FD201A401E29
:1020200000F012F803D500F015F8A8BF401E0028F4
:10203000B0EE480ABDEC028B48BF0020C1B220467A
:102040000022BDE810401FE7B5EE408AF1EE10FA1D
:10205000704700009FED060AB4EE408AF1EE10FAD8
:10206000704700005F70893000000000FFFFFFBE76
:10207000FFFF7FBFC41200080122C0B204E70121A4
:10208000C0B23FE710B5384900F01F028A5C374BF9
:10209000C0F34514C0F3C4201B5D085C02EB0322AF
:1020A00002EB004040F07F4010BD10B5304900F019
:1020B000FF028A5C2F4BC0F30724C0F307401B5D6F
:1020C000085C02EB431202EBC02010BD4FF6FF701C
:1020D0007047F8B5284C2468250001D0A047F1BD11
:1020E000244C234D50F8046B521E06F0FF07EF5DA1
:1020F000C6F3072CC6F3074614F80CC0AE5D07EB19
:102100004C1707EBC6260E801944EBD1F1BDF8B58C
:10211000194C6468250001D0A047F1BD541E01EBA5
:1021200082015C43104D2044104C091F068806F0C4
:102130001F07EF5D4FEA561C0CF03F0C14F80CC063
:10214000F60A07EB0C27AE5D07EB064646F07F4626
:1021500041F804695E42521E3044E7D1F1BD064A9F
:102160001060516070470000AC790108CC7901081B
:102170000C7B01080C7C0108540D002410B50446AA
:10218000A06838B94C20FEF78DFAA0604C220021DF
:1021900001F09BFCA068002814BF0020012010BDA6
:1021A000806800220A804A804269521E8A808069C3
:1021B000401EC880704738B504460FF6943000F0D2
:1021C0000EF9A06830B1C5626A460095A069092180
:1021D0000EF0EAFD31BD2DE9F04F8B4687B0044685
:1021E0000FF670316846154691EC060B80EC060B35
:1021F0002046FFF7C3FFA668002E65D0736C180059
:1022000004D0A0692A46594698475DE0C6F820B038
:10221000756201F05CF9824601F05CF9E268804683
:10222000D6F80C90376908212046926A9047C01D65
:10223000811000EB51700BEB0901C010BBF1000FD6
:10224000049006D5059A00FB1B22059200220092FD
:1022500007E08A45CDF800B0CDF8089002DAAAEB85
:102260000B010291E919002D08D5059A68430391E5
:1022700009FB102005900020019006E0884501959B
:102280000397BCBFA8EB0500039002980128A4BFE8
:102290000398012805DB00985045BCBF01984045D4
:1022A00007DBF06A01280FD100212046FFF783FFEA
:1022B0000AE0F06A18B901212046FFF77CFFA06907
:1022C0006A4608210EF070FD07B0BDE8F08F70B5CA
:1022D00000F0FEF8A06818B1016A2960406A306019
:1022E00070BD38B504460FF6842000F078F8A06879
:1022F00030B185626A460095A0690A210EF054FD4E
:1023000031BD38B50446FFF739FF0546A069002204
:1023100001210EF049FD284332BD806900220521CC
:102320000EF042BD8069002206210EF03DBD80B551
:10233000009180696A460B2104E080B500918069B4
:102340006A460C210EF030FD01BD30B50FF620239A
:1023500083B0D3E90045CDE9004500910D210192FC
:1023600080696A460EF020FD37BD2DE9F041044634
:102370000D469046FFF702FFA768002F18BF45459E
:102380001CD0E26808212046926A904779693A6930
:102390007B6B51434843C2087868190008FB02066A
:1023A00004D0A06942462946984706E0DFF84C3938
:1023B00005FB02011B68304698473E60BDE8F0818E
:1023C00038B504460FF6B01000F009F8A06828B13F
:1023D0000095A0696A460E210EF0E6FC31BD00684A
:1023E0000D4600902046C9E62DE9FC4104461646FC
:1023F0000FF688100D46D0E90023CDE90023A0692F
:10240000A76800F0EBFF8046A06900F0E9FF48EA0A
:102410004008A06900F0E6FF48EA8000072823D8BA
:10242000DFE800F004060A0C1315191B009501E003
:1024300000F027F8019617E0009501E000F021F880
:10244000B8693969401A801B0DE0009601E000F080
:1024500012F8019508E0009601E000F00CF87869A8
:10246000F968401A401B0190A0696A4603210EF0EA
:102470009BFCBDE8F381B8693969401A801B009064
:1024800070477869F968401A401B0090704738B56A
:1024900004460FF6F800FFF7A2FFA06838B14560C8
:1024A0006A46056002210095A0690EF07DFC31BDF1
:1024B000F8B500F00DF8A7684FB1A06900F092FFE1
:1024C00000287D61BE6101D0FE61F1BDFD61F1BDFD
:1024D00004460D46164651E6F0B5044616460FF67C
:1024E000A40083B0D0E900230D462046CDE90023A7
:1024F000FFF744FEA7688FB1F86930B9A06900F012
:1025000071FF002814BFFE61FD61FD606A463E61F7
:10251000072100950196A0690EF046FCF7BDF0B5C5
:102520004F088568DFF8D8075B1A06685B1CEC6902
:102530002D68A3F1010CF06B367C641004FB02776C
:1025400005EB8705059F0068BA1A521C0027F6079D
:102550003AD5C8070ED511002F4608E03868491E45
:1025600080F07F4080F47F00386007EB8407F5D16E
:102570002D1D6346022B17DB11464FF0FF3C0DE08B
:10258000491E1E4601FB04F005EB80073868B61EA5
:10259000022E8CEA000047F8040BF7DA0029EFD18D
:1025A00023F001003D461B1A012B5FDB11462F462D
:1025B00000295BD03868491E80F47F4080F0FF001E
:1025C000386007EB8407F3E7C9070CD511002F46E5
:1025D00006E03B68491E60F31F433B6007EB84073E
:1025E000F7D12D1D6346102B00EB004C1FDB103B79
:1025F000114614E000F03BF8C7F800C0C7F804C06B
:10260000C7F808C0C7F80CC0C7F810C0C7F814C096
:10261000C7F818C0C7F81CC02037103EECD50029F9
:10262000E8D103F1100121F00F033D46CB1A022B34
:102630000EDB114606E000F01AF8B61E022E47F82F
:1026400004CBFADA0029F6D123F001013D465B1AEA
:10265000012B0BDB11002F4607E03A68120C491ED4
:1026600040EA02423A6007EB8407F6D1F0BD491E0A
:102670001E4601FB04F705EB8707704710B580681D
:102680000468C06900FB021024F8103010BD806897
:102690000368C06900FB021033F810007047F8B5FA
:1026A00004460D461646FFF7F2FF0746206980688C
:1026B000804780EA070332462946204601B0BDE83C
:1026C000F040DBE77CB58468256B069C2E0009D0C2
:1026D000DFF82C663668F66B3668009401968069E0
:1026E000A84773BD0094FFF71AFF73BD80B5009231
:1026F00002E080B500930B46FFF7E4FF01BD000048
:102700002DE9F0470A9ED0F808A09946089D336845
:10271000DFF8F085D6F804E0DAF81C602944C5F14A
:10272000080706FB021699F8001018F80140DFF8B8
:10273000D0150968097C01F00301EC400329099DCB
:102740004BD8DFE801F002321F323846AF4288BF73
:1027500028460146E207DAF800C04CBF72461A4626
:1027600064082CF81620761C491EF3D13F1AA5EBFD
:10277000000504D119F8010F082718F80040002DB2
:10278000E3D12AE0E0074FEA540444BFDAF800003E
:1027900020F816E0761C7F1E04D119F8010F0827D7
:1027A00018F800406D1EEDD117E000698068804781
:1027B000E10706D5DAF8001031F81620424021F87A
:1027C0001620761C7F1E4FEA540404D119F8011F0D
:1027D000082718F801406D1EEAD1BDE8F0872DE901
:1027E000F84F00F0CEF8C02700F0C1F802D0022860
:1027F0001ED03CE00C9870B1C5F103004000C0F160
:10280000060200F0A6F8042D04BF00251BF801AF56
:10281000761EF1D12BE000F02CF800F08EF86D1C44
:10282000042D04BF00251BF801AF761EF3D11EE076
:102830000C9870B100F01DF801D000F083F8641C12
:102840006D1C042D04BF00251BF801AF761EF1D1CD
:102850000DE000F00EF801D000F06BF8641C6D1C68
:10286000042D04BF00251BF801AF761EF1D1BDE891
:10287000F18FC5F103004000C0F1060127FA01F213
:1028800002EA0A03C34070472DE9F84F00F079F8D7
:10289000F02700F06CF802D002281ED03CE00C9823
:1028A00070B1C5F101008000C0F1040200F051F8E0
:1028B000022D04BF00251BF801AF761EF1D12BE0DD
:1028C00000F02CF800F039F86D1C022D04BF002533
:1028D0001BF801AF761EF3D11EE00C9870B100F02A
:1028E0001DF801D000F02EF8641C6D1C022D04BFF1
:1028F00000251BF801AF761EF1D10DE000F00EF8B7
:1029000001D000F016F8641C6D1C022D04BF0025D8
:102910001BF801AF761EF1D1BDE8F18FC5F10100C2
:102920008000C0F1040127FA01F202EA0A03C34061
:1029300070474A4621464046A0E64A462146404660
:10294000641C9BE60C984A46214650F823304046CA
:1029500094E60C9927FA02F303EA0A02C2404046C1
:1029600051F822304A462146641C6D1C86E69B467F
:1029700091469BF800A0007C6C180B9E10F00300A1
:1029800070478046DFF8780300680A9D704730B5CD
:10299000049C002C3AD080680568C06900FB0210D6
:1029A000DFF85C23126805EB40000399127C12F0FB
:1029B00003020BD0022A27D030BD13F8012B0839AF
:1029C00000F025F813F8012B00F021F80829F4DABB
:1029D000042905DB13F8012B091F00F018F8F7E7AD
:1029E00000291FBF13F8012B54F8222020F8022BD6
:1029F000491EF5D130BD1A7815001CBF54F82220AD
:102A00000280491E5B1C801C0129F4DA30BD54F899
:102A1000222020F8022B13F8012B54F8222020F852
:102A2000022B13F8012B54F8222020F8022B13F864
:102A3000012B54F8222020F8022B704738B580680B
:102A40000C4619461546049A0368C06901B0520045
:102A500000FB054003EB4000A84B1B68BDE830407D
:102A600018472DE9F04F8B4685B00F99044616465E
:102A70001F46A068DDF838800129DDF84090DDF8B8
:102A800044A008D0022925D004292CD0082933D00D
:102A9000102957D075E0D0F838C0BCF1000F10D025
:102AA00000F072F80DD41398CDF80C9004901298A1
:102AB000CDF808805346019759460090A069E04739
:102AC0005FE0002545455CDA00F063F8FFF718FE8B
:102AD0006D1CF7E70025454553DA00F05AF8FFF77B
:102AE0007EFE6D1CF7E7002545454ADA00F051F8F7
:102AF000FFF7CAFE6D1CF7E7D0F83CC0BCF1000F31
:102B000011D07F480068007C80070CD4139850B126
:102B100003905346CDF808905946CDF804800097AD
:102B2000A069E0472DE0002545452ADA1398534671
:102B300001907219009759462046CA44FFF727FFB3
:102B40006D1CF1E7D0F848C0BCF1000F0CD000F0CC
:102B50001BF809D4CDF808905346CDF804805946A7
:102B60000097A069E0470CE0002508E00097534675
:102B7000721959462046CA44FFF760FF6D1C45454F
:102B8000F4DB05B0BDE8F08F5D480068007CC0074D
:102B9000704713985346029012980090721901974B
:102BA00059462046CA447047491E0D29806816D8E8
:102BB000DFE801F007090B0D1515150F131111139F
:102BC0001313C06870470069704740697047806997
:102BD00070471020704701207047002070474FF069
:102BE000FF30704701290CBF474800207047F0B5FF
:102BF0008468069D0E460598E76907FB0217591A77
:102C0000491CD4F800C03CF817C07F1C491E25F8A9
:102C100002CBF6D117467A1C87423146ECDBF0BD79
:102C200070B5FFF755FCA068D8B1032D16D0192D4B
:102C30000AD0202D0CD0212D08D0232D0CD0242DEE
:102C40000ED0252D06D070BD066370BD466370BDE5
:102C5000866370BDC66370BD066470BD466470BD9A
:102C6000866470BD491E242946D8DFE801F0431D63
:102C7000191B451F45451315172145232545454576
:102C800027292B31454533454545454545372D2FAA
:102C90003F453B001D4870471D4870471D48704721
:102CA0001D4870471D4870471D4870471D487047B4
:102CB0001D4870471D4870471D4870471D487047A4
:102CC0001D4870471D4870471D4870471D48704794
:102CD0001D48704700688068006B70470068806816
:102CE000806B704700688068C06B704700688068C0
:102CF000006C704715487047002070474001002461
:102D00000C0100240C7D0108C85100088F24000824
:102D1000B1240008D9240008D7210008CF220008D8
:102D2000E3220008B7210008032300081B23000842
:102D3000252300082F2300083B2300084B2300080D
:102D40006B230008C1230008212C0008EF2B00088A
:102D50000000000000000000000000000000000073
:102D60000000000000000000000000000000000063
:102D70000000000000000000000000000000000053
:102D80000000000000000000000000000000000043
:102D900080B5DFF8D81509684A6B824205D04863D0
:102DA00000F09DFABDE80240B4E201BD80B5DFF855
:102DB000BC1509680A6B824205D0086300F08FFADF
:102DC000BDE802409DE201BD70B5DFF8A0150A68BC
:102DD000117C80EA01035B0705D5936BD56B1C68FA
:102DE0002E681E602C601074084670BDDFF88015D8
:102DF00009688968084738B5DFF870251268B2F9A4
:102E00000A309942A4BFB2F90E308B421FDBB2F9EF
:102E100008309842A4BFB2F90C30834217DB547CCF
:102E2000DFF8503553F82440137CDB07E56807D5FD
:102E30000A460146EB69204601B0BDE8304018471C
:102E4000D26B13680A4601462046AC69A04731BDE3
:102E500010B5DFF818351B68B3F90A40A142A4BFCA
:102E6000B3F90E408C420FDBB3F90840A042B8BF63
:102E70002046B3F90C409442B8BF2246824203DB9D
:102E800000F01CF8A468A04710BD10B500F068FA67
:102E9000A4BFB3F90C4084420FDBB3F90A40A1424E
:102EA000B8BF2146B3F90E409442B8BF22468A42C9
:102EB00003DB00F003F8E468A04710BD5B7CDFF89B
:102EC000B44454F8234013460A4601462046E468B9
:102ED000704738B5DFF894442468B4F90850A84224
:102EE000B8BF2846B4F90C509542B8BF2A46824272
:102EF00015DBB4F90A50A942B8BF2946B4F90E50FF
:102F00009D42B8BF2B468B4209DB647CDFF86454DA
:102F100055F824400093FFF7D6FF2469A04731BD40
:102F20002DE9F04F00F045F987B000F035F902D0F7
:102F300000F052F932E000F003F930D100F06EF900
:102F400004DBAD1B012D29DB00F0F3F8B3F90E60B3
:102F5000861B012E02DBAD1B012D1FDBB3F90C001C
:102F6000101A0128B3F90820A8BF241A1698ABEB51
:102F7000000B934506460DDA9619A6EB0B06A21A2E
:102F8000301A0BEB020407EBE60720F0070083443E
:102F900006F00706012C01DB00F02DF946E100F0F8
:102FA00001F901E000F0F0F80198A842F6DA00F02B
:102FB00006F9A2BFB0F90E0000998842F2DB00F0DA
:102FC000A6F806E000F0AFF800F0A7F809F1010953
:102FD0000298A145E6DA00F0BFF811B9137C9B070F
:102FE000F4D400F08EF8EDD053F82110EAE72DE983
:102FF000F04F00F0DEF887B000F0CEF802D000F01D
:10300000EBF855E000F09CF853D100F007F904DB31
:10301000AD1B012D4CDB00F08CF8B3F90E60861B64
:10302000012E02DBAD1B012D42DBB3F90C00101A9F
:103030000128A8BF241AB3F908000026834533DA13
:10304000129AA0EB0B06A41B012A0CD0022A12D064
:10305000042A18D0082A1ED0102A1ED0182A18BFF9
:10306000202A1DD020E007EBE60726F00700834466
:1030700006F0070618E007EBA60726F003008344D6
:1030800006F0030610E007EB660726F00100834414
:1030900006F0010608E0374404E007EB460701E0CC
:1030A00007EB860783460026012C01DB00F0A3F81E
:1030B000BCE000F077F801E000F066F80198A84263
:1030C000F6DA00F07CF8A2BFB0F90E000099884251
:1030D000F2DB00F01CF806E000F025F800F01DF827
:1030E00009F101090298A145E6DA00F035F811B9B5
:1030F000137C9B07F4D400F004F8EDD053F82110B2
:10310000EAE7159BD26B002BD2F800A070474FF076
:10311000000805975846C146704794480068C06B40
:10312000C0F800A0704711600299039B4A1E0099E5
:10313000CFE66146DDF84CC00CFB06F6374470471D
:10314000109BDDF844C0681804EB0B02401E521EB1
:103150004CEA0303012B7047B8F1000F06D1059923
:103160004FF00808491C059111F8016D069AF6B256
:1031700026FA02F1129A9640A8EB0208109A8218D9
:1031800002927A4A126870470198401C0190049894
:10319000009013980744704714461D46149FBCF1D5
:1031A000000F7047129800910196C0F10800069038
:1031B000704783467048D0F800C0002670471198C9
:1031C000009908180490401E03906848006803990D
:1031D000B0F90A209142704715980497059013980A
:1031E0000390129802901198019010980090DCF8CA
:1031F0000040584620475A7C5E48234650F822003B
:10320000159A0592139A0496039700950292129AC2
:1032100001920A46C468594664682047534B1B68AC
:10322000B3F90AC0ACEB0106012E704707B0BDE848
:10323000F08F4E4801684F484A7C083150F8220010
:10324000C268126B104770B582B0FFF7F2FF01F051
:10325000E1FF040013D100252846FEF7D4F90090C1
:1032600050B1009A0C216846D268526A904701001A
:1032700033D00098884704436D1C022DECDB54BB0F
:1032800002F007F83D486FF070410068884222D094
:10329000012543F6FF762846FEF7B5F90090C0B148
:1032A0002846FEF7ABFD0420FFF7A0FD334632466B
:1032B00000210020FFF70DFE0020FFF797FD009A88
:1032C0000E216846D268526A904701001CBF0098E0
:1032D00088476D1EDFD5204676BD012076BD234A86
:1032E00024491268527C51F822100969096808477C
:1032F0001E4A20491268527C51F822100969496817
:1033000008471A4909680A7C52074CBF896BC96B88
:1033100008607047154909680A7C52074CBFC96BA1
:10332000896B086070471249096849680847104965
:1033300009680968084710B500F012F8A4BFB3F98E
:103340000C4084420BDBB3F90A40A142A4BFB3F99D
:103350000E408C4203DBFFF7B1FDA469A04710BD0E
:10336000024B1B68B3F90840A04270470C010024CF
:103370003801002410010024100D00242C01002429
:1033800038B5002502280C4607DAFEF73CF920B1D3
:10339000C2682146926A90470546284632BD70B5FC
:1033A00004460025012621463046FFF7E9FF854205
:1033B000B8BF0546761EF6D5284670BD0121DFE769
:1033C0000221DDE70321DBE70421D9E70821D7E764
:1033D0000921D5E70A21D3E70B21D1E70C21CFE75B
:1033E0000D21CDE70E21CBE73C480068407CE5E7A6
:1033F0003A480068407CE3E738480068407CE1E7F1
:1034000036480068407CDFE734480068407CDDE7F0
:1034100032480068407CDBE730480068407CD9E7F0
:103420002E480068407CD7E72C480068407CD5E7F0
:103430002A480068407CD3E728480068407CD1E7F0
:10344000274951F820000821C268926A10470246B5
:10345000234B03EB820053F82220D268526A1047B4
:1034600080B5FEF7D0F828B1C2680221D26ABDE863
:103470000840104702BD19480068407CF0E780B55D
:10348000FEF7C1F808B10069406802BD144951F85F
:10349000200000694068704780B5FEF7B4F808B1B5
:1034A0000069006802BD0E4951F8200000690068FB
:1034B0007047012073E7022071E703206FE70420C3
:1034C0006DE708206BE7074A1060516070470548B8
:1034D0000068704703484068704700000C010024F2
:1034E000100100245C0D0024B0B34108490001D153
:1034F000012070478108890001D102207047C1086E
:10350000C90001D1032070470109090101D104203C
:1035100070474109490101D105207047010A09029C
:1035200001D108207047410A490208D0010B090364
:1035300005D0C10BC90302D0010C090401D1102030
:103540007047810C890401D11220704710F07F4F21
:1035500001D1182070472020704710B50024FFF7D4
:10356000C3FF012808BF01240ED0811E072938BFE0
:10357000082409D3A0F10901082938BF102403D376
:103580001138102838BF2024204610BD38B500F06F
:1035900053F8009040B1009A022100F082F8020036
:1035A00002D000F045F89047284632BD38B500F00B
:1035B00043F8009040B1009A092100F072F802002F
:1035C00002D000F035F89047284632BD70B582B081
:1035D00000F081F8009040B1009A0A2100F061F8F3
:1035E000030002D000F072F89847304676BD70B5FF
:1035F00082B000F070F8009040B1009A0B2100F00A
:1036000050F8030002D000F061F89847304676BDCC
:1036100038B500F011F8009040B1009A062100F092
:1036200040F8020002D000F003F89047284632BD6F
:1036300000982146002570470C460125FDF7E3BFA1
:1036400070B582B000F047F8009040B1009A0321B5
:1036500000F027F8030002D000F038F89847304611
:1036600076BD38B5FFF7E8FF009040B1009A13210E
:1036700000F017F8020002D0FFF7DAFF9047284663
:1036800032BD38B5FFF7D8FF009040B1009A142141
:1036900000F007F8020002D0FFF7CAFF9047284663
:1036A00032BD6846D268526A104770B582B000F0E9
:1036B00012F8009040B1009A1521FFF7F2FF0300C5
:1036C00002D000F003F89847304676BD00982A46AD
:1036D0002146002670470C4615460126FDF793BF8C
:1036E00070B582B0FFF7F7FF009040B1009A10214B
:1036F000FFF7D7FF030002D0FFF7E8FF98473046F7
:1037000076BD70B582B0FFF7E6FF009040B1009A39
:103710000421FFF7C6FF030002D0FFF7D7FF984749
:10372000304676BD10B582B00124FDF76CFF0090E5
:1037300040B1009A1721FFF7B4FF010002D00098B2
:1037400000248847204616BD10B582B00124FDF73D
:103750005AFF009040B1009A0E21FFF7A2FF01002E
:1037600002D0009800248847204616BD10B582B0CC
:103770000124FDF748FF009040B1009A0F21FFF7A8
:1037800090FF010002D0009800248847204616BD13
:10379000014632480068407CF8E601462F48006840
:1037A000407C03E70A4601462C480068407C0DE750
:1037B0000A46014629480068407C18E70146274828
:1037C0000068407C24E70A46014624480068407CA3
:1037D00036E7014621480068407C42E701461F4821
:1037E0000068407C4DE70A4601461C480068407C62
:1037F0005BE70A46014619480068407C70E70A46C4
:10380000014616480068407C7BE714480068407C0D
:1038100088E712480068407C96E710480068407CC2
:10382000A4E770B582B0FFF756FF009040B1009A50
:103830001621FFF736FF030002D0FFF747FF984736
:10384000304676BD054B064A1B685B7C52F8233038
:103850000A4601461846DB681B6A18470C0100241B
:103860001001002410B5136820241C7030245C70F3
:1038700078249C70DB1C1360BDE81040FDF7A7B9ED
:1038800000282DE9F0410C46154698463CD0FEF73D
:103890008DF9064608F0030001280DD0022810D14A
:1038A000B4F90000B4F90410091A491C891B01EB92
:1038B000D17100EB610706E0B4F90400801B471CDE
:1038C00001E0B4F9007000F070FC08F00C0104296C
:1038D0000DD00C29B4F902100DD1B4F90620521AFA
:1038E000521C121A02EBD27201EB620103E0B4F92E
:1038F0000610091A491CF21940182F80521E401E4A
:103900006980AA80E88005E028460822BDE8F041E9
:1039100007F0DBBFBDE8F081002229B101EBD172D5
:1039200000EB620090FBF1F21046704741B10028B5
:103930004CBFA0EB610000EB610090FBF1F0704721
:103940000020704710B582B0044620680090684699
:1039500000F08CFEC0B208B9012016BD0A2804BFD1
:1039600000982060002016BDB1F90020B0F90030A9
:103970009342B8BF0280B0F90220B1F902309A42F6
:10398000B8BF1A464280B1F90420B0F904309A4217
:10399000C8BF1A468280B1F90620B0F906309A42B3
:1039A000C8BF1A46C280704710B5B1F90030B2F9ED
:1039B00000409C42A8BF23460380B2F90230B1F90F
:1039C0000240A342B8BF23464380B1F90430B2F9A4
:1039D0000440A342C8BF23468380B1F90630B2F940
:1039E0000640B0F90410A342C8BF2346C380B0F913
:1039F00000209142A2BFB0F90610B0F90200814246
:103A0000B4BF0020012010BD30B5034611F00304FF
:103A100008BF13F0030415D194080AE051F8045BC1
:103A2000241F43F8045B00F04BF800F049F800F065
:103A300047F8042CF2D21CB1641E00F041F8FBD10F
:103A400002F0030201F0010403F001052C4323D12D
:103A500054080AE031F8025B241F23F8025B00F0EF
:103A60002AF800F028F800F026F8042CF2D22CB145
:103A700031F8025B641E23F8025BF9D102F0010207
:103A80000AE011F8014B121F03F8014B00F00EF889
:103A900000F00CF800F00AF8042AF2D22AB111F86A
:103AA000014B521E03F8014BF9D130BD11F8014B07
:103AB00003F8014B704731F8025B23F8025B704753
:103AC00051F8045B43F8045B704730B5034602E0ED
:103AD00003F8011B521E002A18BF13F00304F7D18C
:103AE000940818D0C9B24FF0013502F003024D43DB
:103AF00005E01D60241F5D609D60DD601033042CB7
:103B0000F7DA002C1CBF43F8045B641EF9D102E015
:103B100003F8011B521E002AFAD130BD830710B5ED
:103B200044BF20F8021B521E530810D0042B01EB97
:103B3000014408DB04601B1F44608460C4601030D3
:103B4000042BF7DA1BB140F8044B5B1EFAE7D207EF
:103B500048BF018010BD026811785378921C026042
:103B600041EA03210846704702681178537841EA18
:103B70000321937841EA0341D378121D41EA03619E
:103B80000260084670470B88D31803808B889B1A05
:103B900083804B88D3184380C988891AC1807047B5
:103BA0002DE9F0410446434F38680D4616469846C5
:103BB000B0F90A108D42A4BFB0F90E10A9421EDB65
:103BC000B0F908108C42A4BFB0F90C00A04216DB7B
:103BD0002946204605F02DF8374B01461B68324632
:103BE00040469847FFF77BFB3968034633482A462F
:103BF000497C50F821002146C468A469A047BDE86B
:103C0000F0812DE9F04182B00446276888460026FD
:103C1000384600F057F848B3404600F063F8451CBA
:103C20003846FCF737FE85420DD1FDB13846FCF72A
:103C300098FD234B00901B682A46414698476846EA
:103C4000FCF79AFD11E02846FCF77FFD07000DD038
:103C5000FCF787FD0090414607F06AFE6846FCF7D6
:103C60008BFD2046FCF732FE276001263046BDE87A
:103C7000F68100214FF080425318984224BFC01AA9
:103C8000D11849089208F7D10846704708A200B930
:103C9000104601B91146027811F8013B9A4205D14C
:103CA00010F8012B002AF6D1002070470120704740
:103CB000000000000C0100247C01002410010024FD
:103CC0004001002438B50C46012548B1FCF749FDF8
:103CD00000902146FFF7DAFF05466846FCF74CFDE9
:103CE000284632BD4FF0FF3120B110F8012B491C9E
:103CF000002AFAD10846704700282DE9F0410C4609
:103D0000154646BF404201260026002C46BF6442AD
:103D10000127002704FB04F100FB0010FFF7A9FFB7
:103D20005FEA00080DD02004B0FBF8F000F00BF8BB
:103D30000EB1C0F534000FB1C0F1B4700DB1C5F8CB
:103D40000080BDE8F081B0F1011F30B501DA002834
:103D500002D54FF0FF3030BDB0F5803F02D14FF4B7
:103D6000B40030BD002159220FF2C00308E05924ED
:103D700003EB84056D68854206D221465829F6D0AA
:103D8000541A01EB5404F3E753F82420904238BF4F
:103D90002246F3D3801A0004A91AB0FBF1F000EB1D
:103DA000044030BD00281B4A1A4B30B546BF4FF0C7
:103DB000FF314042012190FBF2F203FB1200164A50
:103DC000904202DB154A49421018154A9042A4BF9E
:103DD000144A101A4FF47A7290FBF2F25A2AA8BFD2
:103DE0004FF480300FDA0FF244034FF47A7553F832
:103DF000224003EB820305FB12005B681B1B584348
:103E0000B0FBF5F000190129B8BF404230BD0649AA
:103E10000818C7E7407E050021BF0200E040FDFF13
:103E2000915F010020BF0200905F010000000000D0
:103E300078040000EF080000660D0000DC110000AF
:103E400050160000C21A0000331F0000A12300001A
:103E50000C280000742C0000D93000003A35000016
:103E600096390000EF3D00004242000090460000FD
:103E7000D94A00001C4F0000585300008F57000023
:103E8000BE5B0000E65F00000764000020680000E1
:103E9000316C000039700000397400002F78000088
:103EA0001C7C000000800000DA830000A98700006D
:103EB0006D8B0000278F0000D692000079960000DD
:103EC000119A00009C9D00001BA100008EA4000020
:103ED000F3A700004CAB000097AE0000D5B1000086
:103EE00005B5000027B800003ABB00003FBE000047
:103EF00035C100001BC40000F3C60000BBC90000B0
:103F000073CC00001CCF0000B4D100003CD40000F2
:103F1000B3D600001AD900006FDB0000B4DD00004A
:103F2000E7DF000009E2000019E4000017E60000E6
:103F300004E80000DEE90000A6EB00005CED0000F4
:103F4000FFEE000090F000000EF2000078F3000099
:103F5000D0F4000015F6000047F7000065F80000F7
:103F600070F9000068FA00004CFB00001CFC000027
:103F7000D9FC000082FD000018FE000099FE000040
:103F800007FF000060FF0000A6FF0000D8FF000050
:103F9000F6FF0000000001002DE9F34F4FF0000A8A
:103FA00081B0144600260025D3460027D046DFF80E
:103FB000489100E06D1C01A800F058FB07B90746C6
:103FC000010018BF0A2808D0202808D1404502D196
:103FD000B8F1200F07D12E4613E02E461BE0202F0C
:103FE00008BF0027F7D0D9F80010002200E0521CCB
:103FF000D9F804309A4204DA31F8023B9842F6D1FB
:104000006E1C804600F0D6F882460298D34458458C
:10401000D0DA002DCED006B92E4614B1ABEB0A0093
:1040200020603046BDE8FE8FF1B50C460025002625
:1040300000E06D1C684600F019FB070007D000F097
:10404000B9F886190DB1B44201DB0A2FF1D1284627
:10405000F2BD012A10B5294C02D0022A05D008E091
:104060001A462368BDE8104018476268BDE8104052
:10407000104747F6FF71BDE8104000F0EBB8002391
:10408000E7E7F1B582B00C4616466B46FFF7E1FF55
:1040900005460298294600F0FAFA0299084402906F
:1040A00002A800F0E3FA0A28074608BF6D1C13D0E7
:1040B000012E08BF20280FD100F07CF8064606E04C
:1040C00030186D1C009002A800F0D0FA0746202F8F
:1040D00002D100988442F3DA2846FEBD10B50446AA
:1040E000FFF7CFFF01462046BDE8104000F0CFBAF1
:1040F000014A106051607047640D0024440100249F
:104100002DE9F0470446884691469A460026002746
:10411000089D02E04AF8046B7F1C4A46414620464F
:10412000FFF7DCFF8619044418B1AF42F2DB4FF011
:10413000FF373846BDE8F08780B500F036F81F49F4
:1041400009688A8C80188884088C488401BD10B561
:1041500004460A2804BFBDE81040FFF7EDBF0D2854
:104160000CD016490968C96909688847144801686C
:10417000080003D02046BDE81040084710BD0F4995
:104180000020096891F82C2002F00C02042A04D0C7
:10419000082A18BF0C2A04D07047C869007E401E48
:1041A0007047C869007E4008704704480068C069CD
:1041B000407E7047014A002108E000000C01002405
:1041C000E00C0024004A01E00C0100241268D269CE
:1041D00052681047704733B515466E4A126881B071
:1041E00002A96D4C904701902068406918B129469A
:1041F000FCF766FF68B3012003F0E5F92068C269A7
:104200005369FBB1654C216849B1B0F9225002995C
:1042100001989A68904721682846884716E00299D5
:1042200001989A68904711E001A800F01FFA2168F0
:104230000546C969096888475948016808001CBFD4
:10424000284688470298401E0290EDD5002003F0D2
:10425000BAF937BD31B50C460025A0B14E4800680B
:10426000C069406930B14268100003D0009890479F
:1042700032BD6D1CA54206DA684600F0F7F9002849
:1042800018BF0A28F5D1284632BD10B582B00021EA
:1042900000916946FFF796FF009900248842B8BF55
:1042A0000C1A204616BD3B4A33B5126881B002A9EC
:1042B000002490470190D8B1374800250068C069B4
:1042C000406968B1026810000AD0029901989047CD
:1042D0003EBD01A800F0CAF90546FFF76BFF0419BF
:1042E0000298401E0290F4D52846FFF7CEFF04192D
:1042F00020463EBD7CB504462A4800680D4611465E
:1043000070B1002001F0AFFD002842D06A46294676
:104310002046FFF760FF01F08BFD0028F6D173BD4A
:104320006846082207F0D1FA1B4EBDF8002030681D
:10433000C16C8A18ADF80020BDF80220006D82180B
:10434000ADF80220BDF804208918ADF80410BDF8BE
:1043500006104018ADF80600684601F084FD78B1FB
:104360003068BDF800106A464184BDF802108184AF
:1043700029462046FFF72FFF01F05AFD0028EFD114
:104380003068418CC26C891A026D4184818C891A13
:10439000818473BD4C0100240C010024E40C002432
:1043A000E00C0024100D002400E0806828B1038890
:1043B000994224BF42888A42F7D370472DE9F043DF
:1043C00005463E4C206887B02946B0F92A60C0698E
:1043D000C069FFF7E9FF002851D041680088281A1A
:1043E00001EBC0053046AF78FEF700FD814620683E
:1043F000C169826B05926A68049201220397029256
:10440000CA7E01928A7E00920B7EB0F924102A782F
:10441000B0F92200FEF7EBFD2068C069417E027E04
:104420008A4220D2C07E022E10FB01F710FB02F858
:1044300019D0FCF777FC0646FCF76BFCFCF78CFE0A
:1044400021682A78B1F92200B1F924C0C969C97E6E
:1044500011FB020208EB0C0107EB0C03FEF739FD20
:104460003046FCF779FE4846FEF7C0FC20686A78C3
:10447000C3699B7EB0F922105A435118418407B09A
:10448000BDE8F08370B505460C4806680C46294621
:10449000F069C069FFF788FF70B102884368F1696D
:1044A000AA1A03EBC200897E4078484324B113F86E
:1044B000322011FB02F1216070BD00000C010024CC
:1044C00001200880704780B5C069FFF76DFF00B11B
:1044D000012002BD7CB50446214D2868418CC26C88
:1044E0005618818C026D4684511881842046ADF89F
:1044F0000060FFF75FFE86192046FFF7C6FE8019B1
:10450000401EADF804002868B0F92460ADF80260E0
:10451000FCF731FC8019401EADF80600684601F03A
:10452000A2FC30B12046FFF712FE01F081FC00280A
:10453000F8D10A2C286803D0BDF80410491C418426
:10454000418CC26C891A026D4184818C891A8184E4
:1045500073BDBFE7024B1B6859849A84BAE7000019
:104560000C01002438B504460D4602E02046FFF752
:10457000B1FF6D1EFAD531BD324A02F150039842A7
:1045800018BF00F1080209B18A4200D010467047F6
:104590000021F1E72C49002288688A6070472A4987
:1045A0008A6802B9886000F03AB910B5264C2068D4
:1045B00001E0FFF7EDFF61688842FAD1206010BD8D
:1045C00030B5214D83B00446686800940191DDE95F
:1045D0000023C0E900232968FFF7CEFFE96868607F
:1045E00008001CBF68468847AC6000F018F937BD6A
:1045F00070B5154C00202168626891420AD00D68A0
:104600004E680846FFF7C4FF20603146284602F096
:104610003AFB012070BD38B504460D4602F033FB6D
:1046200020B929462046BDE83440C9E731BD0649D6
:10463000096819B1D1E90023C0E900237047024994
:10464000C86070476C0D002450010024224909689D
:104650004968084720490968096808471E4A1268DE
:10466000D26810471C49096889680847F8B51A4E8E
:104670000446316825680968284688473168074636
:10468000284649688847284420603846F2BDF8B576
:1046900004460D460026104F05E03968204649685B
:1046A0008847044486192846451E0028F5D130461F
:1046B000F2BD2DE9F0410446884600260027064D4C
:1046C00005E02968E019761C49688847C7194745FD
:1046D000F7DB3046BDE8F0811C01002411B581B044
:1046E000002430B100E0641C01A8FFF7BFFF0028E0
:1046F000F9D1204616BD00000078704701207047B0
:10470000012070470170012070470FF20C00014931
:10471000086070471C010024F9460008FD460008A7
:10472000014700080547000838B504460D46FCF768
:10473000EDF9C1B22B46204601B00022BDE8304061
:10474000FCF701BA00B585B001AB00936B46FCF7EE
:10475000FAF91CE030B585B00C4601A91546009168
:104760006946FCF7E5F901286B462A46A8BF641E96
:10477000E1B2FCF7E8F901A8FCF7F8FF05B030BD9D
:1047800000B585B001A900916946FFF7CDFF01A8EA
:10479000FCF7ECFF05B000BD7FB5044601A8009012
:1047A0000D462046FCF7B2F92E1AC0B2A84208D234
:1047B0000098F6B22022314607F0A8F8009830445D
:1047C000009069462046FFF7AFFF01A8FCF7CEFF37
:1047D0007FBD0022BEE70022B4E730B585B01546A4
:1047E0000C4601AA194600926B460022FCF7ABF971
:1047F0002A46214601A8FDF734F805B030BD000077
:1048000015480068010018BF004770471349086049
:1048100070471149086070471149086070470F4898
:104820000068010018BF0047704710B50C4C2068A5
:1048300058B103F001F858B103F004F858B12168F9
:104840000A0008D0BDE81040084702F0F5FF10B993
:10485000BDE81040D4E710BD60010024C40D002461
:10486000C80D0024F8B50C46069915461E460029C9
:104870001CBF089800280DD0079FDFF8D4381B68AC
:104880007A00984734B12046A4683B463246294610
:104890006468A047F1BD2DE9F047089C80460D46AD
:1048A00091469A46002C1CBF0A9E002E1DD0099FDF
:1048B00045B1D5F808C03B46524649462846DCF883
:1048C00004C0E047D8F81010206809688847308095
:1048D0002DB1AB685246494628461B689847B61C1E
:1048E000241D7F1E09F10109ECD1BDE8F087DFF836
:1048F00064180860704738B5044600F0FBFA0D46AE
:1049000000F0ADFB0090B0F90610C268691A51437F
:104910000844009900EB4400B1F9041049004942F1
:10492000084400F1180400F004FC204632BD0000E9
:104930002DE9F84FDDF828A09146DFF81C288846BD
:104940000B990C9D9AF800300F9FD45CDFF80C286F
:104950001268C1F10806127C02F00302CC40032A5F
:104960000D9903D8DFE802F00A481A48BDE8F18F34
:104970001AF8012FDFF8E0070826845CB54298BFDB
:104980002E46AD1B04F001006408761E51F820008D
:1049900027F8020BF6D1002DEAD1E7E7D1F804B0F1
:1049A00001E000F054F8B54298BF2E46AD1BB8F1B7
:1049B000000F13D00BE0E00703D500F0BCF8A7F818
:1049C00000B0BF1C761E09F1010912D06408002C4A
:1049D000F1D107EB4607B1440BE0640814B907EBCB
:1049E000460706E0E00748BFA7F800B0BF1C761EE8
:1049F000F3D1002DD5D1B9E70069806880471FFA4F
:104A000080FB01E000F023F8B54298BF2E46AD1BB5
:104A1000B8F1000F10D0E00705D500F08CF8388809
:104A20008BEA00003880BF1C6408761E09F101097A
:104A3000F1D1002DE6D199E7E00703D538888BEA5C
:104A400000003880BF1C6408761EF5D1F1E71AF823
:104A5000011FDFF804070826445C70472DE9F84F72
:104A6000DDF828A088460B9891460C9DDDF834B0FF
:104A70009AF800100E9FC0F10406400001FA00F4FD
:104A800000F038FA007C10F0030003D0022818D0A0
:104A900037D348E0F6B2B542B8BF2E46F6B2AD1BEA
:104AA000E4B2A0095BF82000761E27F8020BA400F0
:104AB000F0B20028F4D1002D35D004261AF8014FA9
:104AC000E8E7F6B2B542B8BF2E46F6B2AD1BC0213C
:104AD0000C4209D0E4B2A009B8F1000F5BF8200045
:104AE000388001D000F027F800F01FF809F1010923
:104AF000EDD1C5B104261AF8014FE2E704261AF8F1
:104B0000014FF6B2B542B8BF2E46F6B2AD1BC0207B
:104B1000044203D0388880F0FF00388000F005F8A8
:104B2000F5D1002DEAD1BDE8F18F761EBF1CA4009F
:104B3000F0B200287047D8F80830009A494640463D
:104B40001B6818472DE9F84FDDF828A090469B46D2
:104B50000B980C460C9D9AF80020DDF834908300E9
:104B6000C0F102010E9E02FA03F7DFF8F0351B6870
:104B7000FFB23A091B7C13F0030303D0022B25D0AC
:104B800069D37DE030B159F822006D1E26F8020B82
:104B90001AF8017F022D12DB681005F001053911AA
:104BA00059F8211026F8021BB90001F03C01401E03
:104BB00059F8011026F8021B1AF8017FEFD1002DD9
:104BC0005ED0381159F82000308059E068B3F021E8
:104BD0000F421EBF59F822003080002C01D000F097
:104BE0007FF8B61C08F101086D1E1CE0F0210F4291
:104BF0001FBF381159F820003080002C01D000F080
:104C00006FF817F00F001EBF59F820007080002CBD
:104C100005D0A3685A4608F1010100F064F8361D7A
:104C200008F10208AD1E1AF8017F022DDEDA3DB34D
:104C30003F091EBF59F827003080002C20D0A36800
:104C40005A46414620461B6801B0BDE8F04F184760
:104C500002211AF8017FC9B28D42B8BF2946C9B2F4
:104C60006D1AC020074203D0308880F0FF003080EA
:104C7000491EB61C3F01C8B20028F2D1002DE7D171
:104C8000BDE8F18FDFF8D4042DE9F04700680C4649
:104C900090469A46089F099D007CDDF828900B9E5F
:104CA00010F0030002D0022809D017E017F8010B1A
:104CB0006D1E59F8200026F8020BF7D10EE0387867
:104CC00001001EBF59F820003080002C03D0A368DB
:104CD000524600F007F800F034F8F0D1BDE8F08754
:104CE000A3685A46414620461B681847DFF86C0403
:104CF0002DE9F84300680C4690469946089F099DA7
:104D0000007C0A9E10F0030002D002280AD016E0B0
:104D1000DFF83C342A461B683946304601B0BDE80E
:104D2000F0431847387801001CBF3080002C03D0B6
:104D3000A3684A46FFF7D6FF00F003F8F2D1BDE8BA
:104D4000F183B61C7F1C6D1E08F1010870472DE928
:104D5000F44F804600F0CEF88AB08A461D4600F037
:104D60007EF90790406908B1FBF7FBFC06900798B5
:104D7000C068089007A8FBF7FFFC189882440698C3
:104D800070B1DFF8D80303210068007C084207D126
:104D900014980A9A009006982B46514603F018FC86
:104DA0000A995046FFF7A7FD81461598179C1028D1
:104DB0001ED1069820B9DFF89C03076838000DD192
:104DC000002607E000F099F8FFF74CFD169824182C
:104DD0000898814414988642F4DB71E01698149B7D
:104DE0000190089800902A4621464846B8476CE052
:104DF00018280DDB002607E000F07FF8FFF74BFDD9
:104E0000169824180898814414988642F4DB57E0D9
:104E10000828199F1ED100260AE0CDF808905246B6
:104E20000195404600940699FFF760FF00F050F8A6
:104E30001498864244DA0A988319002FEDD0CDF8F1
:104E40000C90524602974046019500940699FFF750
:104E500019FFEBE70FB90FF23037002605E000F03D
:104E60003DF8FFF76FFE00F033F81498864227DA1A
:104E70000A9800EB060B1598012804D002281AD0D6
:104E80000428ECD0EFE700F035F800F0E8F80790E0
:104E9000079804901898CDF814905B4603975246F3
:104EA00002950190404600940699FFF741FD07A83E
:104EB000FBF762FCD7E700F011F8FFF7CFFDD2E770
:104EC000069810B106A8FBF757FC0BB0BDE8F08FB1
:104ED0001698761C24180898814470471898CDF8C5
:104EE000109003975B46029552460190404600940D
:104EF00006997047994800687047CDF80890524667
:104F0000019500940A98069983194046761C7047CB
:104F10002DE9F04F8146914F386885B00D46934694
:104F20001C46C16B0968049100F099F8019059463C
:104F30002846FFF7E0FC80460198DDF838A0C068FD
:104F40000390601B441C01984069D0B1FBF709FC39
:104F50000290AAEB0B00401C2346009002985A4690
:104F6000294603F035FB02A8FBF706FC09E004998B
:104F70002246404689B2FEF7D1FD03980BF1010BA2
:104F80008044DA4511DB3868007CC007EFD5D9F8DA
:104F90001000254646468068804780B231884140EF
:104FA0006D1E26F8021BF9D1E7E700F095F805B071
:104FB000BDE8F08F80B50092FFF7AAFF01BD2DE993
:104FC000FC470446654D286888461646994600F019
:104FD00046F80190406908B1FBF7C3FB00903146E9
:104FE0004046FFF788FC07460198D0F80CA02868D7
:104FF000017CC90714D520698068804784B2009875
:1050000020B18368324641461B6898473888761C31
:10501000604038800198C0683F18B145EFDA16E06B
:10502000C06B0468009858B1009832464146761C1F
:1050300083681B689847B1453C805744F4DA06E022
:10504000A9EB0600401C401E3C805744FBD100F0F9
:1050500043F8009808B100F06CF8BDE8F387006EE3
:10506000FBF77FBB3D487CB500680C4615461E46E5
:10507000FFF7F5FF00F02BF806800198406928B192
:10508000FBF76FFB00F02BF800F053F800F024F86A
:1050900073BDF0B50646FFF72DFF83B00C461546ED
:1050A000FFF7DDFF00F013F807463069806880479E
:1050B0003988484038800198406928B1FBF751FB96
:1050C00000F00DF800F035F800F006F8F7BD01909B
:1050D00029462046FFF70FBC01A8FBF74DBB009007
:1050E00083682A4621461B6818470846114680B542
:1050F000FFF701FC008802BD10B582B080680C4645
:10510000FBF72FFB0090808820800098C08860808B
:1051100000980099808809890818401EA08000988E
:105120000099C08849890818401EE08000F001F805
:1051300013BD6846FBF720BB01290CBF0FF28800A6
:105140000020704716290CBF05480020704700005A
:1051500040010024CC0D00240C7D01080C0100242A
:10516000D38B0008006810B1C3681B6A18477047EA
:10517000082901D110207047006810B1C268926AF6
:1051800010474FF0FF3070470000000001000000A2
:105190000200000003000000040000000500000001
:1051A00006000000070000000800000009000000E1
:1051B0000A0000000B0000000C0000000D000000C1
:1051C0000E0000000F000000040000004F4D00081A
:1051D000B54F0008BF4F0008114F0008EB50000802
:1051E00065500008935000086551000845510008BB
:1051F0007151000839510008F950000810B5454CAC
:10520000A068FBF747FA0020A060606010BD41492C
:105210004860704710B53F4CA06868B920688000AE
:10522000FBF740FAA06008B9012010BD3A48E060E1
:1052300004F10C00FCF771F9002010BD2DE9F041DC
:1052400004001CBFA668002E07D0324DA86820B10C
:10525000D4F80080B8F5807F01DD002015E02868D3
:105260004045B8BF8046002707E056F82700FEF704
:1052700036F8A96841F827007F1C4745F5DB6968C7
:1052800008001CBF20468847A868BDE8F081D5E724
:10529000D4E72DE9F84F03F0BFFC80460024DFF887
:1052A0007C90DFF87CB01F4F0DE0F0B2FEF720F8E5
:1052B0000246F1B22046761CFEF712FA5645F4DBA0
:1052C00038684574641C444517DA2046FCF79BF99E
:1052D0000028F7D03868457C44742046FEF776F8FD
:1052E0000928EDDA5BF8240000694845E8D020463B
:1052F0000026FEF76DF88246E0E7BDE8F18F811EDB
:10530000FF292FBF01200349086000207047014892
:105310000068704764010024FD5100080C7E0108FC
:10532000100100240C01002404480068806B006810
:10533000704702480068C06B006870470C01002489
:10534000F0B50446134E306883B0134F0D466946DE
:10535000407C57F82000C268126B9047BDF90000EE
:105360008442A4BFBDF90400A04207DBBDF90200DE
:105370008542A4BFBDF90600A84201DA0020FEBDA7
:1053800030682A462146407C57F82000C3685B6994
:105390009847FEBD0C01002410010024D0E7000056
:1053A00010B50E4C0E482168497C50F8210058B1C8
:1053B000C16811B10968042903D000680028F7D139
:1053C00002E008B1FCF754F920680021016600F101
:1053D00008014161BDE81040FDF72BBF0C0100241E
:1053E0001001002410B5074C2068006BFDF777FF13
:1053F000FDF787FF2068406BFDF771FFBDE81040A7
:10540000FDF788BF0C010024DFF8642C0021136A2B
:10541000984201D108467047526A01219042F9D062
:105420004FF0FF3070473EB50446DFF8480C056882
:10543000696C19B9204603F003FC37BD00F07AFA15
:10544000DFF82C0C006E00B9A86CFBF78AF900900D
:1054500001A900F02BF900F0A2FA214601A8FEF7FD
:1054600083FA01A803F0ECFB37BD70B504460D4686
:10547000164600F04AFE806A32462946C00320469E
:10548000BDE870404CBF4FF4804320237AE1FEB565
:1054900004460D461646FBF75DF90090876AB8078B
:1054A00040D5284600F0A9F900281EBF40F60100AB
:1054B0003840012836D02046FBF753F900900246C9
:1054C000294600F0F9F901A800F097F940B30098D7
:1054D00044F22001806A084207D0009801AA00F136
:1054E00008010830FBF7B9FC1AE0009801A908226E
:1054F000DFF87C5B083006F0E8F900980099806AD4
:1055000030438862A88B401CA883204600F0B4FB7F
:10551000A96B012202FA00F00843A863FFF77FF9A4
:1055200000F03DFAF7BD2022B1E738B504460D463C
:1055300001E000F033FA00F0EBFD00F01EF903D4B7
:1055400000F02DFA002032BD00992046FEF70CFA3B
:10555000009880690028ECD100F021FA2846FFF776
:1055600053FFC043C00F32BDDFF8080B10B5006811
:1055700084B0DFF8FC4A4830017B21B104F1080017
:10558000FFF751FF1FBD0068FBF7EBF8009000F03C
:10559000D0F900F004FA216E11B101A8FFF7C5FFA0
:1055A00001A8FFF740FF1FBD70B50D0084B0044691
:1055B00042D0FBF7D6F801900199002008620198CB
:1055C000856100F0A5FD0290019890F8280000F098
:1055D00008050298C6691EB900F09DFD02A829E0E1
:1055E00000F0E0F9009065B990F82800000708D5B0
:1055F00001980662029800F08EFD00F010FC6846EB
:1056000018E000F00CFC00F0CAF900F050F900902E
:105610000098066A0EB904620BE000F048F9002D0C
:10562000F5D190F828100907F1D500980462019887
:10563000066201A8FBF7A0F87FBD70B50446FBF732
:1056400089F80546A869A0B1FBF784F80646F16918
:10565000A14205D10846FBF77DF8006AF06170BDF4
:1056600039B10846FBF776F8016AA142F8D1296AF8
:10567000016270BD10B582B000F051FD00908169EB
:1056800041B1026A00F0B7F82046FFF7D6FF009953
:105690000020886100F083F913BD10B50446E0696D
:1056A00000F083FAE0690028F9D110BD0B46B0F98B
:1056B0000220B0F900101846FBF7FBBB10B50446FA
:1056C000DFF8AC09006C02E0FBF744F8406910B168
:1056D000A042F9D1012010BD10B5040082B021D044
:1056E000FBF73FF800F049F81AD50098406A002807
:1056F0001EBFDFF8D41C0968A14204D002F021FBD0
:10570000009900204862204601F01DF9044605E09A
:105710002046FFF7E1FF00F0E0FA046A002CF7D121
:1057200000F03DF913BD70B5040084B00D46164677
:1057300022D0FBF716F800F020F804D5009A29468D
:1057400000F0BAF810B900F02AF97FBD00F027F98F
:10575000324601A92046FFF79AFE204601F0F3F8F1
:10576000044607E0324601A92046FFF7DCFF00F0BF
:10577000B4FA046A002CF5D17FBD009090F828009F
:10578000800770472DE9F0410F0084B006461446AB
:1057900098462ED03846FAF7E4FF0090856AA807AD
:1057A00025D5009A314600F087F800B340F6010095
:1057B0002840012807D100984346026A816901A860
:1057C000FFF7E0FF04E0424601A93846FFF75FFE1D
:1057D0000098C66907E0424601A93046FFF7A3FFDB
:1057E00000F065F8066A002E18BFA642F3D100F05B
:1057F000D6F8BDE8FF812023C4E7B0F90410B0F962
:1058000000209142A2BFB0F90610B0F90200814217
:10581000B4BF00200120704770B584B006460C4626
:1058200015460DE001AA21463046FFF7F5FF00F0CE
:105830003EF8066A002EF5D10098066A00F0AFF82F
:10584000002E33D000F0AEF80090866AB007F3D592
:1058500015B100F02FF801E000F06BF800F065F8EA
:105860000028E9D0F0071ED40098002DB0F90200FE
:1058700004D0B5F902108142A8BF0846B4F902105D
:10588000814209DABDF90600B4F90620411E9142B1
:10589000D2DA401EE080CFE7BDF90A00B4F9062055
:1058A0009042C9DAF6E70098C669C3E77FBD304683
:1058B000FAF750BF00992A4601A8FEF775B8FEB561
:1058C00007460C461546002610E001AA2146384638
:1058D000FFF7F5FF00B101263846FAF73BFF076AEC
:1058E000002FF2D10098076A00F059F8DFB138466E
:1058F000FAF737FF0090876AB807F3D515B1FFF7BD
:10590000D9FF01E000F015F800F00FF80028E9D009
:10591000F80705D4BDF808000126401C2080E1E707
:105920000098C769DCE73046FEBD01A92046FBF7B9
:10593000C7BB009901A8082205F0C7BF70B584B0A5
:1059400006460C4615460DE001AA21463046FFF7F3
:10595000F5FFFFF7ACFF066A002EF5D10098066A46
:1059600000F01DF8CEB100F01DF80090866AB00777
:10597000F4D515B1FFF79EFF01E0FFF7DAFFFFF75F
:10598000D4FF0028EAD0F00704D4BDF80400401E7C
:10599000A080E3E70098C669DEE77FBD054668465C
:1059A000FAF7EABE3046FAF7DCBE002818BF03F06B
:1059B00029BA704700B585B000916946019003F09F
:1059C00021FA05B000BD00224A800A80828803883F
:1059D000D21A8A80C2884088101AC880704770B571
:1059E000040086B00D4631D0FAF7BBFE0090866AFF
:1059F000B00729D5FFF79DFFF00344BF2046FFF70E
:105A00006BFE65B103A82946082205F05EFF0098E9
:105A100003A9FFF74BFE03A901A8FDF7A5FF214647
:105A200001A8FFF782FD78B140F60100304001285F
:105A300006D10098026A816901A8FFF7DCFE03E045
:105A400001A92046FFF76FFDFFF7A9FF06B070BD63
:105A50000021C4E72DE9F04F83B007468846DFF800
:105A6000844B0D98216D0C9E91469A4641EA0005A3
:105A700046B9608B50B3DFF8FC050068407C04EB4E
:105A80008000066A16F1010F08BF00261ED0EEB195
:105A9000FFF788FF0190B0F900000199B1F90210F9
:105AA000C719B9F1000F884405D1019AB2F9042051
:105AB000101A00F10109BAF1000F05D10198B0F9EF
:105AC0000600401A00F1010A00F026FB0F982C3066
:105AD000FAF73DFF5FEA000B57D0608B401C6083F4
